:100000000EC041C025C024C023C058C021C020C09C
:100010001FC01EC01DC01CC01BC01AC019C01124A7
:100020001FBECFEDCDBF10E0A0E6B0E0ECE5F1E003
:1000300002C005900D92A436B107D9F710E0A4E6EE
:10004000B0E001C01D92A936B107E1F702D084C02B
:10005000D7CFBC9AC498BA9885B785BF8BB7806450
:100060008BBF83B7856083BF89B7826089BF78946F
:1000700085B7877E806185BF85B7806285BF88959B
:1000800085B78F7DF8CF1F920F920FB60F92112474
:100090008F93C49A109264001092650010926600CB
:1000A0001092670081E08093680085B7877E85BFE6
:1000B0008F910F900FBE0F901F9018951F920F9267
:1000C0000FB60F9211242F933F934F935F938F930B
:1000D0009F93AF93BF9380916800882381F1209113
:1000E00064003091650040916600509167008091F6
:1000F000600090916100A0916200B09163002817A8
:1001000039074A075B07A0F480916400909165006D
:10011000A0916600B09167000196A11DB11D80936A
:10012000640090936500A0936600B093670007C0D9
:10013000C4981092680085B7877E806185BFBF91A3
:10014000AF919F918F915F914F913F912F910F9020
:0C0150000FBE0F901F901895F894FFCF81
:04015C004E0E000043
:00000001FF
